:020000040800F2
:10000000B8560020710200085B5200081340000837
:1000100059520008B10F00081165000800000000E7
:10002000000000000000000000000000B101000816
:100030008D100008000000000D020008555D00084A
:100040008B0200088B0200088B0200088B0200085C
:100050008B0200088B0200088B0200088B0200084C
:100060008B0200088B020008971000088B02000822
:100070008B0200088B0200088B0200088B0200082C
:100080008B0200088B0200088B02000800000000B1
:100090000000000000000000000000009D100008AB
:1000A0008B020008155E00088B0200088B02000816
:1000B0008B0200088B020008315E00082140000816
:1000C000154000088B0200088B0200088B02000814
:1000D0008B0200088B0200088B0200080000000061
:1000E0008F1000088B0200088B020008000000003F
:1000F0000000000000000000000000008B0200086B
:10010000000000008B0200088B0200088B02000830
:1001100000000000000000000000000000000000DF
:10012000D10F00088B0200088B0200088B02000828
:10013000DD0F0008000000000000000000000000CB
:100140000000000000000000000000008B0200081A
:100150008B0200088B0200088B020008056500086E
:100160008B0200088B020008000000000000000065
:10017000000000000000000000000000000000007F
:10018000000000008B0200080000000000000000DA
:100190008B0200088B020008DFF810D000F0E8FAAC
:1001A00000480047496E0008AFF30080B8560020B1
:1001B0002C4B19680868B0E8F04F80F30988BFF34A
:1001C0006F8F4FF0000080F311887047000000002F
:1001D00008480068006880F308884FF0000080F34A
:1001E000148862B661B6BFF34F8FBFF36F8F00DF25
:1001F00000BF00BF08ED00E0DFF80C00016841F42B
:1002000070010160704700BF88ED00E0EFF30980E6
:10021000BFF36F8F134B1A681EF0100F08BF20ED4D
:10022000108A20E9F04F106009B44FF0500080F3BD
:100230001188BFF34F8FBFF36F8F07F059FF4FF057
:10024000000080F3118809BC19680868B0E8F04F15
:100250001EF0100F08BFB0EC108A80F30988BFF3BE
:100260006F8F70477C000020EFF30580704700001F
:100270000648804706480047FEE7FEE7FEE7FEE740
:10028000FEE7FEE7FEE7FEE7FEE7FEE7055E0008A5
:10029000990100082DE9F05F0546002092469B4633
:1002A00088460646814640241BE02846414647468C
:1002B000224600F095F853465A46C01A914110D391
:1002C00011461846224600F07CF82D1A67EB01080B
:1002D0004F4622460120002100F073F817EB000979
:1002E0004E41201EA4F10104DFDC484631462A4677
:1002F0004346BDE8F09F40EA01039B0703D009E0B5
:1003000008C9121F08C0042AFAD203E011F8013B01
:1003100000F8013B521EF9D27047D2B201E000F85A
:10032000012B491EFBD270470022F6E710B5134699
:100330000A4604461946FFF7F0FF204610BD30B5C7
:1003400005462A460B4612F8010B13F8014B08B17B
:10035000A042F8D01CB1002802D06D1CF1E728465D
:1003600030BD421C10F8011B0029FBD1801A7047D8
:1003700000F0004230F000400AD0C10D01F560717C
:10038000C0F3160042EA0151C2084007114370470A
:1003900000200146704730B50B4601460020202260
:1003A000012409E021FA02F59D4205D303FA02F582
:1003B000491B04FA02F52844151EA2F10102F1DCE2
:1003C00030BD202A04DB203A00FA02F100207047F9
:1003D0009140C2F1200320FA03F319439040704783
:1003E000202A04DB203A21FA02F00021704721FA8A
:1003F00002F3D040C2F120029140084319467047F1
:100400002DE9FE4F804681EA0300C00F0C460090A4
:1004100021F0004123F00045B8EB0200A94105D2CC
:100420004046214690461C460B46024623F00040BB
:10043000104347D0270DC7F30A00C3F30A510290B7
:10044000401A019040286BDAC3F3130040F4801B7C
:100450000098924620B10023D2EB030A63EB0B0B0A
:1004600001985946C0F140025046FFF7AAFF0646E0
:100470000D4650465946019A00F08CF910EB0800E1
:100480006141002487EA115284EAE7731A4340D09D
:10049000009A62B3019A012A4FEA075215DC001B49
:1004A00061EB02014FF0004202EA0752CDE900423F
:1004B000001C41F5801132462B4600F08CF903B048
:1004C000BDE8F08F40462146F9E7001B61EB0201D1
:1004D000001C41F5801300185B412018A2F500179D
:1004E00047EB030140EAD570B6196D4111E06D0884
:1004F0004FEA360645EAC0754FEA0752001B61EB2A
:100500000201001C41F5801149084FEA3000001932
:10051000514132462B4603B0BDE8F04F00F04CB9D4
:100520000098012240000023D0EB020263EBE0734D
:10053000009821464FEAE074B8EB000061EB04013B
:10054000E9E783F000435BE781F0004158E72DE9DC
:10055000FE4F81EA030404F0004421F000410094BE
:100560004FF0000B23F0004350EA01045ED052EA42
:1005700003045BD0C3F30A54C1F30A552C44A4F21C
:10058000F3340194A0FB0254C1F3130141F4801130
:10059000C3F3130343F4801301FB024400FB034E37
:1005A000840A970A44EA815447EA8357A4FB076800
:1005B00002958D0A05FB07854FEA932C04FB0C542A
:1005C0002705029D4FEA065847EA1637B5EB08059E
:1005D0006EEB070C870E920E47EA811742EA8312F0
:1005E000A7FB0201B6EB0B0164EB00042B0D43EA01
:1005F0000C335E1844EB1C50DA465146E7FB02010F
:10060000C5F313044FEA0B3343EA14534FEA0432A1
:10061000019C43EA0603A4F10C040294009CCDE97A
:1006200000B400F0D8F803B0BDE8F08F0020014618
:10063000F9E72DE9F04D81EA030404F0004B21F0C5
:10064000004514464FF0000A23F0004150EA05022D
:1006500020D054EA01021DD0C5F30A570246C5F363
:100660001303C1F31300C1F30A5640F4801543F499
:100670008013A7EB0608101BD64608F2FD3873EB73
:10068000050002D308F1010801E092185B41B8F1BE
:10069000000F03DA00200146BDE8F08D00204FF482
:1006A0008011064684460EE0171B73EB050705D341
:1006B000121B63EB050306434CEA010C49084FEAA1
:1006C000300092185B4150EA0107EDD152EA030075
:1006D00012D082EA040083EA0501084305D0101B0A
:1006E000AB4106D20122002306E000224FF0004376
:1006F00002E06FF0010253101AEB06004CEB0851B8
:1007000010EB0A0041EB0B01BDE8F04D00F054B8CE
:10071000C1F30A52C1F3130140F2FF3341F48011D7
:100720009A4202DA00200146704740F233439A426F
:10073000A2F2334202DC5242FFF752BEFFF741BE43
:1007400030B5041E71F1000404DB4FF00044404258
:1007500064EB0101141E73F1000405DB1C464FF02D
:100760000043524263EB0403994208BF904230BDFC
:10077000064C074D06E0E06840F0010394E80700EE
:1007800098471034AC42F6D3FFF70AFD38B20008A0
:1007900058B20008202A06DBCB17203A41FA02F0B3
:1007A00043EAE07306E041FA02F3D040C2F12002CE
:1007B000914008431946704710B5141E73F10004A8
:1007C00008DA401C41F1000192185B411A4301D143
:1007D00020F0010010BD2DE9F04D92469B4611B16D
:1007E000B1FA81F202E0B0FA80F220329046FFF7CF
:1007F000E8FD04460F4640EA0A0041EA0B01534671
:100800005A46084313D0114653EA010019D0C8F1E3
:1008100040025046FFF7E4FD05460E465046594655
:100820004246FFF7CEFD084305D0012004E02046F4
:100830003946BDE8F08D0020054346EAE0762C43BA
:1008400037430A986305E40AA0EB08000022FD0A7A
:1008500044EA47540A3002D500200146E9E7010581
:1008600010196941DDE9084500196941BDE8F04DFD
:10087000A2E710B50146806B026C12F0500F05D054
:10088000026CD20626D500F0DFFD10BD016C41F4EC
:100890000071016401688A6812F0405F17D1027E1E
:1008A000AAB9CA6A12F4700F02D08A6852050ED42F
:1008B0004A6822F020024A60016C21F480710164D0
:1008C000016CC90403D4016C41F00101016400F022
:1008D000B9FD10BD806BC26CBDE8104008461047E2
:1008E00010B5806B40210164416C41F0040141640A
:1008F00000F0AAFD10BD10B5806B00F0A4FD10BD86
:10090000464910B54A6822F440324A604A68436852
:100910001A434A6001684A6822F480724A6001689A
:100920004A68036942EA03224A6001684A6822F081
:1009300040724A6001684A6883681A434A600168E5
:100940008A6822F400628A6001688A68C3681A4370
:100950008A60816A6FF07062D14201688A6822F011
:1009600070628A6001688A680CD0836A1A438A6060
:1009700001688A6822F040528A6001688A68C36A06
:100980001A4301E022F040528A6001688A6822F02E
:1009900002028A6001688A68037E42EA43028A6032
:1009A00090F82010002901684A680FD042F40062D4
:1009B0004A6001684A6822F460424A6001684A68F5
:1009C000174C436A04EB43331A4301E022F40062FC
:1009D0004A600168CA6A22F47002CA620168CA6A7F
:1009E000838B104C04EB03531A43CA6201688A6874
:1009F00022F400728A6001688A6890F8303042EA16
:100A000043228A6001688A6822F480628A600168F1
:100A10008A68406942EA8020886010BD0023014056
:100A200000E0FFFF0000F0FF014800887047000071
:100A3000FC00002001220249024800F07FBD0000B6
:100A4000FC0000203401002010B50122184919488B
:100A500003F07EFA00282AD117A005F05BFD4FF4C1
:100A6000FA74204606F011FA19A000F06BFAC820BB
:100A700006F00BFAC82218A118A000F071FA22465D
:100A800015A118A000F06CFA224613A119A000F0DD
:100A900067FA1CA005F03EFD23A000F053FAC82021
:100AA00006F0F3F9BDE8104023A005F033BD10BDFA
:100AB00000010020BC0300205B42545D20496E69A8
:100AC000742053746172742E2E2E0D0A00000000E3
:100AD00041540D0A000000004F4B000041544530C6
:100AE0000D0A000041542B424C454D4F44453D30CA
:100AF0000D0A000041542B424C45414456454E3DA1
:100B0000310D0A005B42545D20456E746572696E5A
:100B100067205472616E73706172656E74204D6FE0
:100B200064652E2E2E0D0A0041542B5452414E5313
:100B3000454E5445520D0A005B42545D20496E6992
:100B40007420446F6E652E2052656164792E0D0A03
:100B500000000000F0B593B0044601F061F9194FB0
:100B60007968401AB0F57A7F27D3A088DFED160A9E
:100B700000EE100A9FED151AB8EE400A60EE200A4A
:100B800080EE810A10EE100AFFF7F2FB05460E46D2
:100B90002068FFF7EDFB41EC100BA0680095CDE954
:100BA000016053EC102B0AA103A805F0C3FC03A8B5
:100BB00000F0C8F901F034F97860642006F065F9B6
:100BC00013B0F0BD000100203333534000F07F45E7
:100BD00024252E31662C20252E32662C20256C757E
:100BE0000D0A000000680A49884210D10949488866
:100BF0007F2807D2084A0B781354401C80B24880E3
:100C00000021115401220349044803F0A1B970479F
:100C10000014014000010020204D0020BC030020F2
:100C200010B50421034802F0EDFE024900200968D6
:100C3000886310BD84020020B0B1A9B1642900D935
:100C400064210A4AB2FBF0F000FB01F2C821B2FBBA
:100C5000F1F20749401E0B68D862C86008688263D9
:100C60000421034802F0A2BDFFF7DABF40420F00A3
:100C7000840200200148006970470000080100203C
:100C80000421014802F082BBCC0200200F222DE992
:100C9000F041B0FBF2F302FB1304344B344D0F2848
:100CA0001C5D2C7002D904F07F002870B1FBF2F0BB
:100CB00002FB10100F29185C687002D900F07F0049
:100CC000687001222B4E94032146304601F0A2F8B1
:100CD0004FF4004801224146304601F09BF8244F72
:100CE0007F1E97F90000401C00EBD07121F001013C
:100CF000401A40B2387010B1012808D102E0002239
:100D0000214601E000224146304601F083F897F980
:100D1000000008242D56DFF86080A7020022394623
:100D2000304601F077F8280601D4002200E00122C5
:100D30000821404601F06EF8680045B201223946AC
:100D4000304601F067F8641E64B2002CE6D14FF41F
:100D50000075002229464446404601F05BF82946CA
:100D60002046BDE8F041012201F054B890B10008DE
:100D700021010020000402400008024010B5642355
:100D800003229021034801F08DFA002800D00120B1
:100D900010BD0000DC0100201FB50020039064227C
:100DA000022103A88DE807000123002290210A48B0
:100DB00001F034FB10B19FED090A1FBDBDF80C0016
:100DC000F4EE000A40BA00B2401100EE100AB8EE8C
:100DD000C00A20EE200A1FBDDC01002000C079C43B
:100DE000002310B51A461946184600F01DF8BDE854
:100DF000104000F023B800001CB58DF800008DF8FD
:100E000001100848049C8DF802208DF80330ADF8DD
:100E100004400068002804D000231A46694606F002
:100E20005FF91CBD38000020002803D10248017082
:100E300042708370704700001D010020F0B4184C10
:100E40002078002829D1611C43264A780B781204A7
:100E500042EA03238978134A0B43172105461D27CD
:100E600023FA01FC5FEACC7C02D022F8106001E09A
:100E700022F81070401C491EF2D5002122F81050B3
:100E8000401C491C3229F9DB01212170F0BC83B2DE
:100E9000044A0C21044802F0E1BCF0BC7047000099
:100EA0001C010020205200203C02002010B50A49FD
:100EB0000446D1E900028968A160C4E90002401C2F
:100EC00007D0204600F076F8A168814201D10020C9
:100ED00010BD012010BD000000000608F0B587B06D
:100EE000044600F067F8A06000F058FE0020009073
:100EF00002200490072002900120039005A9684673
:100F000000F0B8FD20B100F001FE012007B0F0BDF7
:100F100026460B4D03270024002356F8242029469B
:100F2000022000F0FDFD18B100F0F0FD0220EDE719
:100F3000641C2D1DBC42EFD300F0E8FD0020E5E766
:100F40000000060810B50446FFF70BFA214682B2EE
:100F5000BDE810406423014803F00AB8BC03002038
:100F600070B50E460446154680210F48FFF7DCF9A0
:100F70000E49002048802046FFF7E4FF00F050FFB4
:100F8000044609E00A2005F080FF31460648FFF7D5
:100F9000D6F908B1012070BD00F042FF001BA84245
:100FA000F0D3002070BD0000204D00200001002083
:100FB000FEE700000549022209688B6843F001033F
:100FC0008B600146014800F04DBB0000440000204A
:100FD000014800F0DDBB00007C010020014800F06A
:100FE000D7BB00001403002001681823CAB2103ACE
:100FF000B2FBF3F2054B6FF30901032A9B5CC36557
:1010000000D9091D8165084670470000E09200087C
:1010100010B5014600208B698A6A4FF0C07453B145
:10102000B3F5005F15D072B1012A0CD0022A0AD0A4
:10103000032A09D104E01AB1012A06D0022A03D1F9
:10104000C96AC90100D5012010BDC96AA142FAD000
:1010500010BD002AF7D0012AF2D0022AF3D0032AC9
:10106000F3D010BD30B50468256825F480252560CF
:10107000046863608368402B036803D0996000684C
:10108000C26030BD9A600068C16030BD70474FF4E7
:10109000806000F0BBBD102000F0B8BD10B520206E
:1010A00000F0B4FDBDE810404FF4807000F0AEBD1C
:1010B00072B6FEE7002229B101291AD002291BD0FD
:1010C0004FF440720E490B6823F440730B600B68B9
:1010D00013430B600A6822F0F8020A600A680223D0
:1010E00003EBC00002430A60086840F480300860E7
:1010F00070474FF48072E5E74FF40072E2E70000BA
:10110000103C02401348016889050FD5016821F49D
:1011100000710160016841F400610160016821F41F
:1011200000610160016841F40071016001684905D6
:101130000FD5016821F480610160016841F480519C
:101140000160016821F480510160016841F480610F
:1011500001607047003C024008490A6822F440726E
:101160000A600A6842F004020A600A684FF4803399
:1011700043EA002002430A6070470000103C02402E
:10118000064A136823F440731360136813601368EE
:1011900043F001031360017070470000103C0240EF
:1011A000094910B50C6824F440740C600C6844F4D0
:1011B00040740C600C6844F001040C600260BFF3E2
:1011C0006F8F436010BD0000103C0240074A136857
:1011D00023F440731360136843F48073136013683F
:1011E00043F001031360018070470000103C02408F
:1011F000074A136823F440731360136843F40073C1
:101200001360136843F0010313600160704700002E
:10121000103C02401C490868C2061C4805D5C2693A
:1012200042F01002C26110220A600A68920605D5D7
:10123000C26942F00802C26120220A600A685206AE
:1012400005D5C26942F00402C26140220A600A6800
:10125000120605D5C26942F00202C26180220A600C
:101260000A68D20506D5C26942F00102C2614FF494
:1012700080720A600A68920705D5C26942F02002AE
:10128000C2610220086070470C3C02404C00002004
:1012900070B5114904460020C86100F0C1FD064642
:1012A0000E4D09E0601C07D024B100F0B9FD801B91
:1012B000A04201D9032070BD2868C003F2D4286879
:1012C000C00701D001202860286810F4F970F2D01E
:1012D000FFF7A0FF012070BD4C0000200C3C024035
:1012E00078B50024009490F83C20012A19D00122FE
:1012F00080F83C200A6807230568092A13D9EE689C
:101300000A3A02EB420293409E43EE600B788A68F1
:101310000A3B03EB43039A400368DD682A43DA6023
:1013200010E0022078BD2E6902EB420293409E43FA
:101330002E610B788A6803EB43039A4003681D69AA
:101340002A431A614A681F23072A13D205686E6B65
:10135000521E02EB820293409E436E630A8893B250
:101360000A79521E02EB820293400268556B2B43AE
:10137000536327E005680D2A12D22E6BD21F02EBB1
:10138000820293409E432E630B790A88DB1F92B240
:1013900003EB83039A4003681D6B2A431A6311E031
:1013A000EE6A0D3A02EB820293409E43EE620B79A5
:1013B0000A880D3B92B203EB83039A400368DD6A0F
:1013C0002A43DA621B4B0568194A9D420AD10D680F
:1013D000122D07D1556825F400055560556845F470
:1013E0008005556005689D421DD1134D0B68AB42C9
:1013F00001D0112B17D1536823F480035360536835
:1014000043F4000353600968A9420CD10B490C4A0C
:101410000968B1FBF2F101EB8101490000E0491ECE
:1014200000910029FBD180F83C40002078BD0000ED
:10143000002301400020014012000010780000202D
:1014400040420F0070477047704770B504004FF07E
:10145000000503D0206C002610B107E0012070BD0C
:10146000204600F01DF8666484F83C60206CC006DD
:1014700010D4206C20F4885040F0020020642046F4
:10148000FFF73EFA6664206C20F0020040F0010095
:10149000206400E0012584F83C60284670BD00000F
:1014A00070B586B0064614216846FEF73DFF1E491A
:1014B0003068884235D11D480025016841F48071AB
:1014C0000160006800F480700590184814380168C5
:1014D00041F0010101600068694600F001000590DB
:1014E000012000900320CDE90105114800F09AFB8E
:1014F000114C1048C4E900050015A560C4E903506B
:10150000400060618000A0614011E0610002C4E918
:101510000805204600F00CFA08B1FFF7C9FDB463D6
:10152000A66306B070BD00000020014044380240B0
:1015300000000240106402407C010020F8B5134610
:1015400000220446009290F83C000E461146012805
:1015500007D0012084F83C0020688568ED0702D0A0
:1015600011E00220F8BD856845F001058560364828
:10157000364D0068B0FBF5F000EB400000E0401E87
:1015800000900028FBD120688568ED0503D58568AB
:1015900025F48075856020688568ED0749D0216C49
:1015A00040F20165A94341F480712164406840051F
:1015B00005D5206C20F4005040F480502064206C4D
:1015C000C00404D5606C20F00600606400E0626432
:1015D00084F83C20A16B1F481D4DC863A16B1E48B9
:1015E0000864A16B1D48C86421686FF02200086080
:1015F0002068416841F0806141602068816841F461
:1016000080718160216832464C31A06B00F0FAF99C
:1016100001466868C006206802D0114A904210D185
:10162000826812F0405F0CD1826842F08042826092
:1016300007E0206C40F010002064606C40F0010076
:1016400060640846F8BD00007800002040420F00AA
:101650000023014073080008F7080008E1080008AB
:101660000020014030B502234371002305E000BF94
:10167000056851F823402C605B1C9342F8D3016845
:10168000096801224271084630BD10B5040002D03D
:10169000607910B106E0012010BD002020712046C5
:1016A00000F004F801206071002010BD08B500684A
:1016B0000649884208D10648016841F4805101601A
:1016C000006800F48050009008BD00000030024027
:1016D000303802402DE9F0410446876D00F0A0FB50
:1016E000064694F835000025022806D08020606563
:1016F00084F834500120BDE8F0812068016821F0B1
:10170000160101602068416921F080014161206C6F
:1017100008B9A06C20B12068016821F008010160BF
:101720002068016821F0010101600CE000F078FB05
:10173000801B052807D920206065032084F8350028
:1017400084F83450D7E720680068C007EED194F8D9
:101750005C103F208840B860012084F8350084F890
:1017600034500020C7E790F83510022903D08021BB
:10177000416501207047052180F835100068016837
:1017800021F0010101600020704790F8350070479A
:101790002DE9F84304464FF00009CDF80090634866
:1017A0004FF41651A56D0068B0FBF1F72E6894F860
:1017B0005C10082000FA01F131420FD021680A685C
:1017C00052070BD50A6822F004020A6094F85C10F4
:1017D0008840A860606D40F00100606594F85C107E
:1017E0004FF0010808FA01F0304208D02168496939
:1017F000090604D5A860606D40F00200606594F8A9
:101800005C1004208840304208D0216809688907AC
:1018100004D5A860606D40F00400606594F85C1029
:1018200010208840304218D021680968090714D573
:10183000A86020680168490304D50068000308D542
:10184000A16C07E00168C90503D4016821F0080113
:101850000160216C09B12046884794F85C10202073
:101860008840304231D021680968C9062DD5A8606A
:1018700094F8350005282068016806D0490347D54B
:10188000006800031DD4616C1CE021F016010160AA
:101890002068416921F080014161206C08B9A06C89
:1018A00020B12068016821F00801016094F85C1003
:1018B0003F208840A86084F8358084F83490216DFA
:1018C0001FE0E16B09B120468847606D00282BD0EE
:1018D000606DC00714D0052084F8350020680168C9
:1018E00021F0010101600098401C0090B84203D82B
:1018F00020680068C007F6D184F8358084F83490F9
:10190000E16C002910D001B02046BDE8F043084743
:101910000168C905D5D4016821F01001016084F87F
:10192000358084F83490CCE7BDE8F8837800002057
:101930002DE9F041044600F073FA06465CB102203E
:1019400084F83500002584F834502068016821F0BF
:10195000010101600DE00120BDE8F08100F060FAB6
:10196000801B052805D920206065032084F83500F8
:10197000F2E720680068C007F0D1226811682048AB
:101980000140D4E901031843D4E903363343184333
:1019900063691843A3691843E3691843236A18432A
:1019A0000843616A042903D1D4E90B13194308439E
:1019B000106020684069666A20F0070130460E43D7
:1019C000012704280CD1A06A0643E06A40B12046F2
:1019D000FFF71EFB20B14020606584F83570BAE740
:1019E000206846612046FFF7FFFA94F85C203F210B
:1019F00091408160656584F835700020ACE7000097
:101A00003F8010F02DE9F0410446866D90F83400D7
:101A1000002501280DD0012084F8340094F8357099
:101A20000020012F07D084F8340002252846BDE8A5
:101A3000F0810220FBE7022784F8357060652046BC
:101A4000FFF710FB94F85C103F208840B0602068DE
:101A5000016841F016010160206C20B12068016826
:101A600041F0080101602068016841F00101016056
:101A7000DCE700002DE9F047044622480F46017ECE
:101A800001290AD00121804601764CF2503948469E
:101A9000FFF7FEFB020003D02FE00220BDE8F08735
:101AA0004FF0FF3038602068174D012801D0A6683C
:101AB0001CE0207C6168FFF74FFB4846FFF7E8FB1E
:101AC0000246286820F00400286014E0217C30469B
:101AD000FFF7F0FA4846FFF7DBFB0200286820F02A
:101AE000FA00286001D03E6005E0761CD4E90210BF
:101AF0000844B042EAD8FFF705FB002188F8181027
:101B00001046CBE74C000020103C0240034801681F
:101B100041F000410160002070470000103C02408D
:101B20002DE9F0471B4E05461446307E1F46894678
:101B3000012808D0012030764CF250384046FFF79B
:101B4000A7FB18B114E00220BDE8F0879DB1012D7C
:101B500016D0022D19D022463B464846FFF720FBFF
:101B60004046FFF795FB0C490A6822F001020A6023
:101B700000213176E8E7E1B24846FFF701FBEFE7E5
:101B8000A1B24846FFF722FBEAE721464846FFF7A5
:101B90002FFBE5E74C000020103C024007490020E5
:101BA0000A68002A09DA054A054B0C3A1360054B0E
:101BB00013600968002900DA01207047103C0240D8
:101BC00023016745AB89EFCD08B50021ADF80010C2
:101BD000B0F5807F08D0B0F5806F07D0102810D006
:101BE00020280DD1042002E0012000E00220ADF801
:101BF0000000054800231A466946006805F070FA9F
:101C000008BD0320F3E7000034000020044910B5AC
:101C10000A68024202D00860FFF7D6FF10BD00003C
:101C2000143C01402DE9F84FDFF8B8A1002201244F
:101C300003254FF00F090AF1040BAAF1040E00BFAF
:101C40000B6804FA02F63340B34273D10F7907F000
:101C50000307012F01D0022F16D187684FEA4208EF
:101C600005FA08FC27EA0C07D1F80CC00CFA08FCAE
:101C70004CEA070CC0F808C04768B7430E79C6F3B2
:101C8000001696403E4346600E79F643B6070DD0E7
:101C9000C768560005FA06FC27EA0C07D1F808C009
:101CA0000CFA06FC4CEA070CC0F80CC00E7906F0E2
:101CB0000306022E10D1D60800EB8608D8F8206063
:101CC00057074FEAD76C09FA0CF7BE430F6907FABA
:101CD0000CF73743C8F8207006684FEA420C05FA43
:101CE0000CF7BE430F7907F0030707FA0CF73743E9
:101CF00007604E6816F4403F6DD03B4E376847F49E
:101D000080473760366822F0030706F48046009665
:101D1000364E07EB060CDCF8086897073F0F09FA08
:101D200007F826EA0806DFF8C880404503D14FF0DF
:101D300000081EE04FE0DFF8BC80404502D14FF0C4
:101D4000010816E0DFF8B080404502D14FF00208EC
:101D50000FE0DFF8A880404502D14FF0030808E00B
:101D6000DFF89C80404502D14FF0040801E04FF0BD
:101D7000070808FA07F848EA0608CCF80888DAF8ED
:101D800000605746D1F804C09E435FEACC2C00D5D2
:101D90001E433E60DBF800605F46D1F804C09E43FE
:101DA0005FEA8C2C00D51E433E60DEF8006077466B
:101DB000D1F804C09E435FEA8C3C00D51E433E60D0
:101DC000084F083F3E68D1F804C09E435FEACC3C10
:101DD00000D51E433E60521C102AFFF431AFBDE80F
:101DE000F88F0000083C01404438024000300140B8
:101DF000000002400004024000080240000C0240C3
:101E000000100240426921EA02030A4043EA02410B
:101E1000816170470AB1816170470904FBE70000E6
:101E200001488068704700006C00002070477047D0
:101E30002DE9F041016804464A694E6890F83E0079
:101E40000025D743FA0506D4F243D20503D46FF434
:101E5000807201254A61B90508D4F143C90505D44A
:101E600022686FF4007145F002055161790525D4AF
:101E7000F143C90522D4638D94F83D10226B2028CC
:101E800008D13BB9212910D029290ED0282901D108
:101E9000212A0AD022686FF48061516145F004055F
:101EA000102806D0402804D008E0204602F034FD77
:101EB00004E02068016841F400710160380508D42D
:101EC000F043C00505D421686FF4006045F00805B3
:101ED0004861002D07D0206C284320642046BDE8CF
:101EE000F04102F009B9BDE8F0812DE9F047026840
:101EF00000215368C66A90F83E4090F83D50102C7F
:101F000012D0402C10D0046C002C7DD05469E443D6
:101F1000A6077AD4DE43B60577D4036C03B1916982
:101F2000BDE8F04702F0D4BC976951694FF42A0C20
:101F3000C9435FEAC1784FF02A4904D066452AD0E8
:101F40004E4528D010E0DE43B6050DD4C16A614588
:101F500001D1012103E0C16A494501D10821C162D3
:101F6000BDE8F04702F09CBB0E0716D4DE43B60571
:101F700013D4416CC9B21161416B09B1C96B29B964
:101F8000816B002907D0C96B002904D00068416823
:101F900041F400614160BDE8F0878E0706D4DE435E
:101FA000B60503D4BDE8F04702F0EEBAFE4352682E
:101FB00076074FEA02521DD4002AECDB0A0608D449
:101FC000DA43520505D4490705D5BDE8F04702F0CC
:101FD0007FBA4907DFD4D9438905DCD4212D05D048
:101FE000402CD8D1BDE8F04702F0A0BBBDE8F047D7
:101FF00002F02CBA002ACEDB4A060BD4DA43520593
:1020000008D4490708D501E00DE00EE0BDE8F0472F
:1020100002F0A2B94907BED4D9438905BBD4BDE8B3
:10202000F04702F02CB9916970E7E10606D4D94374
:10203000890503D4BDE8F04702F0B6BC2821212D64
:1020400027D0292D25D0650655D4DD436D0552D402
:10205000640752D590F83D30448D002C9BD0126916
:10206000446A2270426A521C4262428D521E42856C
:10207000428D002A8FD12A2B8DD10268536823F418
:10208000806353602222026380F83D1000F00EFB53
:1020900081E7250623D4DD436D0520D4640720D5D0
:1020A00090F83D30448D002CF2D0446A24781461BD
:1020B000426A521C4262428D521E4285428D002A63
:1020C000E6D1292BE4D10268536823F4806353607E
:1020D0002122026380F83D1000F0E9FA5BE7610716
:1020E000D6D4D9438905D3D4418D0029D0D0416AB3
:1020F000097811610AE06107CAD4D9438905C7D4B8
:10210000418D0029C4D01169426A1170416A491C8D
:102110004162418D491E41853DE7704770B504001D
:1021200025D094F83D00002520B984F83C50204685
:1021300000F076FA242084F83D002068016821F040
:10214000010101602068016841F4004101602068DC
:10215000016821F40041016000F05EFC4D4A6168B5
:10216000914201D84C4900E04C49884201D20120FB
:1021700070BD4B492368B0FBF1F15E6826F03F0665
:102180000E435E606368934206D94FF496735943D9
:102190004FF47A73B1FBF3F12368491C1E6A26F0F1
:1021A0003F06314319626168914210D84900401ED0
:1021B000B0FBF1F2521CC2F30B02042A01D204203C
:1021C00022E0B0FBF1F0401CC0F30B001CE0A26861
:1021D000F2B301EBC10303EB0116431EB3FBF6F3AD
:1021E0005B1C43F480431B0549D092B301EBC10251
:1021F00002EB0111401EB0FBF1F0401CC0F30B00DC
:1022000040F4804040F400402168CA694CF6FF73F6
:102210009A431043C861D4E907100143206802685B
:1022200022F0C00211430160D4E903010143206898
:10223000826848F2FF339A4311438160D4E9050173
:1022400008432168CA6822F0FF021043C86001E019
:102250000EE016E02068016841F00101016025648C
:10226000202084F83D00256384F83E50002070BD96
:1022700001EB4106431EB3FBF6F35B1CB3E7012001
:10228000C2E701EB4101401EB0FBF1F0401CC0F37E
:102290000B00B7E7A086010080841E0000093D0006
:1022A00040420F002DE9FF4F81B089460446FFF7F9
:1022B000B7FD054694F83D004FF0000820287DD179
:1022C0001923012250492046009502F01BFC0028EA
:1022D00074D194F83C00012870D0012084F83C00AF
:1022E00020680168C90703D1016841F0010101605C
:1022F0002068016821F400610160242084F83D0019
:10230000002626644148E0624FF0011B2027206828
:10231000016841F480710160009500225946204611
:10232000049B02F0EFFB50B120680068C00502D5A5
:102330004FF400702064032005B0BDE8F08F2168E1
:1023400009F0FE000861FFF76BFD2168054648694A
:102350004969C0F34000C1F380214FF0A00A0FE0AB
:10236000FFF75EFD411B0498814200D808B984F84C
:102370003DA0216848694969C0F34000C1F380214C
:1023800094F83D20A02A02D008B90029E8D084F8AA
:102390003D7020684169C943890716D4016841F43A
:1023A0000071016020684169806919230122164982
:1023B0002046009502F0A6FBB8B900E021E084F8C1
:1023C0003D7084F83C600020B6E7016841F400717C
:1023D000016021686FF480604861192301220A4975
:1023E0002046009502F08EFB08B10120A4E7039877
:1023F00008F1010880458AD384F83D7084F83C6078
:10240000F3E7022098E70000020010000000FFFF41
:102410007047704770477047704700002DE9FF4FC5
:1024200083B09A46DDE9118793460446DDF8409073
:10243000FFF7F6FC054694F83D00202870D11923DB
:10244000012274492046009502F05CFB0028F5D17A
:1024500094F83C00012863D0012084F83C002068F7
:102460000168C90703D1016841F0010101602068DA
:10247000016821F400610160222084F83D004020C1
:1024800084F83E0000262664C4F82490A4F82A802C
:10249000608D20856048E062CDE9007553465A465C
:1024A0002046049902F096F9002879D1208DD0B108
:1024B000012821D00228206824D041698069009039
:1024C000208D032866D801282BD0544902283B468A
:1024D0004FF00002009557D08846204602F012FBCC
:1024E00000285DD13AE02068416981690091016866
:1024F00041F4007101607DE02068016821F4806191
:102500000160F0E7016821F48061016020680168E2
:1025100041F400610160206841698069009069E0D0
:1025200075E02A463946204602F092FB88BB54E00B
:102530002068016841F40071016020680069616AE7
:102540000870606A401C6062218D491E2185618D82
:10255000491E618521680969017042E020680168AF
:1025600021F48061016020680069616A0870606A16
:10257000401C6062208D401E2085608D401E60855D
:102580003B46002241460095204602F0BBFA00B9C6
:10259000CEE705E02A463946204602F059FB18B13D
:1025A000012007B0BDE8F08F20680069616A0870FB
:1025B000606A401C6062208D401E81B22185608D62
:1025C000401E608520684269D243520712D4032915
:1025D00003D1016821F48061016020680069616AAB
:1025E0000870606A401C6062208D401E2085608DEE
:1025F000401E6085208D00287FF462AF202084F883
:102600003D0084F83E6084F83C600020C9E7022069
:10261000C7E70000020010000000FFFF04000100F7
:1026200010B586B0044614216846FDF77DFE1C49AE
:102630002068884231D11B480021026842F0020222
:102640000260006800F0020005904FF440700090B6
:102650001220CDE901010320039004200490694673
:102660001148FFF7DFFA0F481030016841F40011FC
:1026700001600068002200F40010059005211F2071
:1026800000F0DEF81F2000F0CDF800220521202008
:1026900000F0D6F8202000F0C5F806B010BD00000C
:1026A0000054004030380240000402407047704738
:1026B00070B5040013D021684CF6CC400860216846
:1026C00045F255500860D4E9000141602168A068D6
:1026D0008860FFF7A5FB054641F601060DE00120E5
:1026E00070BD00BFFFF79CFB401BB04205D92068BE
:1026F000C068800701D0032070BD2068C0688007D3
:10270000F0D121684AF6AA200860002070BD006858
:102710004AF6AA2101600020704700000248816843
:1027200002781144816070476C0000200B4810B59E
:10273000016841F400710160016841F48061016049
:10274000016841F480710160032000F099F80520D0
:1027500000F006F800F04AF8002010BD003C0240EE
:1027600030B505461C4887B00024016841F40031AB
:102770000160006806A900F40030009001A800F094
:102780002BF900F059F91549154AB0FBF1F115483C
:10279000491E026040F2E732C0E90324C0E9011497
:1027A000846100F0A9FB040012D10E4800F014FC73
:1027B00004000DD1192000F035F8102D07D20022A9
:1027C0002946192000F03CF80748056000E0012484
:1027D00007B0204630BD00004438024040420F00A0
:1027E0000044014004040020700000200C4882B026
:1027F000016841F480410160006800F4804000906D
:102800000748001F016841F0805101600068002204
:1028100000F0805000900F21901E02B000F010B820
:1028200044380240002809DB00F01F0201219140DA
:102830004009800000F1E020C0F80011704700005E
:10284000F0B40E4B1B680C46C3F30223C3F107051B
:10285000042D00D90425191D072901D2002300E009
:10286000DB1E012606FA05F1491E214099409E40D3
:10287000761E16403143F0BC03F070BE0CED00E054
:10288000064900F0070208684FF6FF03184040EAC7
:102890000220034A10430860704700000CED00E07E
:1028A0000000FA052DE9F0470E46050065D0DFF877
:1028B0001481D8F80000F7B200F00700B04207D248
:1028C00088F80070D8F8000000F00700B04254D13A
:1028D00028683D4C810712D5400703D5206840F495
:1028E000E05020602878000703D5206840F460405D
:1028F00020602068A96820F0F00008432060287854
:10290000C0072DD0304968680839012812D0022844
:1029100013D0032811D00968890700292DDA21680E
:1029200021F0030101432160FFF77AFA814641F269
:10293000883A0EE009688903EFE709688901ECE746
:10294000FFF76EFAA0EB0901514502D90320BDE85B
:10295000F0872068696800F00C00B0EB810FEFD1C0
:10296000D8F80010404601F00701B14207D90770BE
:10297000006800F00700B04201D00120E7E72878A6
:10298000400705D52068E96820F4E050084320603E
:102990002878000706D52068296920F4604040EABD
:1029A000C100206000F058F82168084AC1F3031103
:1029B000515CC8400649086006480068FFF7D0FE31
:1029C0000020C4E7003C024008380240E8920008BA
:1029D00078000020700000200F2202600C4A13686B
:1029E00003F003034360136803F0F003836013688C
:1029F00003F4E053C36012684FF4E05303EAD202D9
:102A000002610448006800F0070008607047000099
:102A100008380240003C0240044805490068096843
:102A2000044AC1F38221515CC840704778000020FD
:102A300008380240F892000804480549006809680F
:102A4000044AC1F34231515CC8407047780000200D
:102A500008380240F8920008154810B5006810F0D8
:102A60000C02144813D04110042A0FD0082A0ED1AA
:102A70000F4C241F2268236802F03F025B0207D537
:102A80002068C0F38810A0FB010106E0084610BDD5
:102A90002168C1F38811A1FB00010023FDF7FAFBB7
:102AA0002168C1F30141491C4900B0FBF1F010BDA0
:102AB000083802400024F4002DE9F84F04006ED0DD
:102AC0002078DFF84C93C007A9F104054AD009F13A
:102AD00004000168C1F38101012908D00068C0F336
:102AE000810002280AD1D9F80000400206D52868E2
:102AF000800337D560680028E1D033E06068B0F526
:102B0000803F10D0B0F5A02F286810D020F480307E
:102B10002860286820F4802028606068A8B1FFF74A
:102B20007FF906460DE0286840F48030F4E740F471
:102B300080202860F7E700BFFFF772F9801B642848
:102B400073D828688003F7D50CE0FFF769F90646CB
:102B500005E000BFFFF764F9801B6428F0D82868FF
:102B60008003F7D42078DFF8AC8280074FF0000AAA
:102B70003ED5A748001D016811F00C0F08D0006871
:102B8000C0F3810002280BD1D9F80000400207D41D
:102B90002868800716D5E068012800D112E033E1EB
:102BA000E068B8B10120C8F80000FFF739F906461F
:102BB00005E000BFFFF734F9801B0228C0D8286861
:102BC0008007F7D52868216920F0F80040EAC100A5
:102BD00028600DE0C8F800A0FFF722F9064604E0DF
:102BE000FFF71EF9801B02281FD828688007F7D43A
:102BF0002078000722D5864F87486169703771B108
:102C000001210160FFF70CF9064604E0FFF708F91F
:102C1000801B022809D838688007F7D50EE0C0F875
:102C200000A0FFF7FDF8064605E082E0FFF7F8F8A0
:102C3000801B02287DD838688007F7D420784007A9
:102C400068D5DFF8CCB100270BF13C0BDBF80000B6
:102C5000C0000BD4DBF8001041F08051CBF800101D
:102C6000DBF80000012700F0805000906B4E3068C8
:102C7000C00510D4306840F480703060FFF7D0F8A1
:102C8000009005E0FFF7CCF80099401A022850D8D0
:102C90003068C005F6D55E4EA0686C3601280FD0AE
:102CA0000528306810D020F001003060306820F036
:102CB00004003060A068B8B1FFF7B2F800900FE0F0
:102CC000306840F00100F4E740F004003060F7E7BE
:102CD000FFF7A6F80099411A41F28830814266D880
:102CE00030688007F4D50EE0FFF79AF8009007E00F
:102CF000FFF796F80099411A41F28830814256D880
:102D000030688007F4D42FB1DBF8001021F0805137
:102D1000CBF80010A069C8B33D49091D0968C1F38B
:102D2000810102294AD00228504607D0C8F8600025
:102D300000E03CE0FFF774F804463BE04746C8F883
:102D40006000FFF76DF8064605E000BFFFF768F882
:102D5000801B02282BD828688001F7D4D4E907010A
:102D60000843A16A2E4A490802EB0141626A41EA1E
:102D70008211084394F82C1040EA0161C9F8001050
:102D800001203866FFF74CF8044606E03EE000BF3D
:102D9000FFF746F8001B022809D828688001F7D5FC
:102DA00034E000BFFFF73CF8001B022802D90320E3
:102DB000BDE8F88F28688001F4D427E00128F7D017
:102DC000D9F80000E26900F4800191421CD1226A26
:102DD00000F03F01914217D147F6C071626A01408D
:102DE000B1EB821F10D1A26A4FF0FF3300F44031E3
:102DF00003EB5202B1EB024F06D194F82C1000F015
:102E00007060B0EB016F01D00120D1E70020CFE767
:102E10000438024000004742800E474200700040E4
:102E20000000FFFF7047704710B590F83C20012A62
:102E300022D0012280F83C20CA688C6822F44072BB
:102E400022434C6822F4806222430C6822F4006220
:102E500022430C6922F4805222434C6922F400522E
:102E60002243C969002322F480420A4301684A646C
:102E700080F83C30002010BD022010BD70B590F8E5
:102E80003C20012A2CD0012480F83C40022280F80A
:102E90003D2003685A689D6822F070060A68324334
:102EA0005A60104B02689A420ED0B2F1804F0BD09C
:102EB0000D4B9A4208D00D4B9A4205D00C4B9A42CA
:102EC00002D00C4B9A4204D1496825F08003194383
:102ED000916080F83D40002180F83C10084670BDAC
:102EE000022070BD000001400004004000080040C6
:102EF000000C00400040014010B5040003D094F8DD
:102F00003D0010B107E0012010BD002084F83C0016
:102F1000204600F01FF8022084F83D00211D2068A3
:102F200002F08CFF012084F8460084F83E0084F80B
:102F30003F0084F8400084F8410084F8420084F89F
:102F4000430084F8440084F8450084F83D000020E4
:102F500010BD000038B5054600681B49884231D1D4
:102F60001A4900200A6842F001020A600968194CF7
:102F700001F001010091164921604FF0406161604C
:102F80004021C4E902100901216149006161890001
:102F9000C4E906104FF44031C4E908102046FEF79A
:102FA000C7FC08B1FEF784F82C63AC636C630022A5
:102FB00005211920A563FFF743FCBDE8384019201F
:102FC000FFF730BC38BD000000000140443802402B
:102FD000706402401403002090F83D10012901D0D4
:102FE00001207047022180F83D100168CA6842F054
:102FF0000102CA6000680E4988420ED0B0F1804FCD
:103000000BD00C49884208D00B49884205D00B49A7
:10301000884202D00A49884204D1816801F0070140
:10302000062903D0016841F00101016000207047CA
:10303000000001400004004000080040000C004077
:103040000040014070B5044690F83C00002501287E
:1030500017D0012684F83C60022084F83D002068E7
:10306000826822F0770222F47F428260086850284A
:1030700038D00DDC20284FD005DC90B3102811D1BA
:103080004AE0022070BD302846D040280AD13BE0FB
:1030900060282FD070280DD0B0F5805F03D0B0F538
:1030A000005F12D0012584F83D60002084F83C00C8
:1030B000284670BDCB68D1E90121206802F090FF5D
:1030C0002068816841F0770109E0CB68D1E90121EE
:1030D000206802F085FF2068816841F480418160AA
:1030E000E1E719E0CA684968206803F02DF850212B
:1030F000206806E0CA684968206803F06DF860211E
:10310000206802F077FFCEE7CA684968206803F0BC
:103110001BF840212068F4E7226801461046F0E7DA
:103120007047000010B5194A016891422DD1017F06
:1031300002292AD1164C217871B12178012924D194
:10314000042100F003FDA060A0686168884209D9ED
:10315000A0686168401A0CE0042100F0F7FC606090
:10316000012011E060684FF6FF71081AA168084459
:10317000401CE060E168002029B1E168054AB2FB2B
:10318000F1F1216100E02061207010BD00080040D5
:103190000801002040420F002DE9F041054690F85B
:1031A0003C0000260C46012810D0012085F83C0088
:1031B00072B1042A1CD0082A2CD00C2A50D0012627
:1031C000002085F83C003046BDE8F0810220FBE796
:1031D000D4E90012E368286802F0C8FF2868816912
:1031E00021F00C01816128688169A26811430FE018
:1031F000D4E90012E368286803F000F828688169C0
:1032000021F44061816128688169A26841EA022154
:103210008161D5E72868D4E9002C277B036A016A1D
:1032200021F480710162C16923F4206321F003015C
:1032300041EA0C0121F0F00C39074FF420674CEA09
:10324000116107EA02221A43C16102622868C1695A
:1032500021F00C01C1612868C169A26811432BE00B
:103260002868D4E90021E768036AD0F820C02CF46C
:10327000805CC0F820C0D0F81CC023F420432CF49C
:10328000407C4CEA012121F4704C4FF6FF7101EAB9
:1032900007314FF4204741EA0C0107EA02321A4392
:1032A000C16102622868C16921F44061C161286876
:1032B000C169A26841EA0221C16181E710B5040039
:1032C00003D094F83D0010B107E0012010BD0020AC
:1032D00084F83C00204600F01FF8022084F83D00EE
:1032E000211D206802F0AAFD012084F8460084F820
:1032F0003E0084F83F0084F8400084F8410084F8E0
:10330000420084F8430084F8440084F8450084F8BF
:103310003D00002010BD000010B586B00446142109
:103320006846FDF701F816492068884226D11548FD
:103330000021026842F004020260006800F004000C
:10334000059010481038026842F0020202600068DE
:1033500000F002000590802000900220CDE90101DC
:10336000CDE9031069460848FEF75CFC0022052100
:103370001E20FFF765FA1E20FFF754FA06B010BDB5
:1033800000080040403802400004024030B50446C6
:10339000002551B104290DD0082910D094F84120FE
:1033A00094F84500012A11D10EE094F83E2094F8DB
:1033B0004200F7E794F83F2094F84300F2E794F8CE
:1033C000402094F84400EDE7012801D0012030BDF1
:1033D000022059B1042912D0082919D084F84100DB
:1033E00084F845000C293ED001253AE084F83E00DF
:1033F00084F842002068C26842F0020210E084F8BB
:103400003F0084F843002068C26842F0040207E0ED
:1034100084F8400084F844002068C26842F0080242
:10342000C2600122206802F059FD114920688842DB
:103430000ED0B0F1804F0BD00E49884208D00E4913
:10344000884205D00D49884202D00D49884204D1F6
:10345000816801F00701062903D0016841F00101EC
:103460000160284630BD2068C26842F01002D7E7EC
:10347000000001400004004000080040000C004033
:10348000004001402DE9F04104460068C668056926
:103490004FF00007A90713D5B10711D5F91E016137
:1034A00001202077206880698007204602D0FFF73E
:1034B00039FE04E000F0B8F8204600F05BF9277709
:1034C000680716D5700714D521686FF004000861ED
:1034D000022020772068806910F4407F204602D0C7
:1034E000FFF720FE04E000F09FF8204600F042F9CC
:1034F0002777280715D5300713D521686FF0080006
:103500000861042020772068C0698007204602D027
:10351000FFF708FE04E000F087F8204600F02AF9E3
:103520002777E80616D5F00614D521686FF010004D
:103530000861082020772068C06910F4407F204689
:1035400002D0FFF7EFFD04E000F06EF8204600F037
:1035500011F92777E80708D0F00706D021686FF047
:1035600001000861204600F0E7FA280608D5300679
:1035700006D521686FF0800008612046FFF752FCF5
:10358000680608D5700606D521686FF0400008610E
:10359000204600F0F0FAA8060AD5B00608D5216842
:1035A0006FF0200008612046BDE8F041FFF73BBC0A
:1035B000BDE8F08170B586B0044614216846FCF77A
:1035C000B3FE164E25680023154902220124154832
:1035D000B5420ED10D6845F001050D60096801F096
:1035E00001010591C1148DE80E00CDE9033469464F
:1035F00010E0B5F1804F0FD10D6845F001050D6069
:1036000009680092CDE9012301F00101CDE90441EF
:1036100003936946FEF706FB06B070BD000001404B
:103620003038024000000240704770B5044690F800
:103630003C0000260D4601280FD0012084F83C00F4
:103640006AB1042A1DD0082A2FD00C2A3FD00126A7
:10365000002084F83C00304670BD022070BD206818
:1036600002F0D0FC2068816941F008018161206886
:10367000816921F004018161206881692A6911430F
:1036800011E0206802F0E6FC2068816941F40061E5
:1036900081612068816921F480618161206881698C
:1036A0002A6941EA02218161D2E7206802F0FEFC2A
:1036B0002068C16941F00801C1612068C16921F039
:1036C0000401C1612068C1692A69114311E02068C1
:1036D00002F018FD2068C16941F40061C1612068F1
:1036E000C16921F48061C1612068C1692A6941EA28
:1036F0000221C161ACE710B5040003D094F83D008D
:1037000010B107E0012010BD002084F83C002046E5
:1037100000F01EF8022084F83D00211D206802F010
:103720008DFB012084F8460084F83E0084F83F00B9
:1037300084F8400084F8410084F8420084F8430093
:1037400084F8440084F8450084F83D00002010BD52
:1037500008B50068B0F1804F08D10548016841F014
:1037600001010160006800F00100009008BD000048
:103770004038024010B5094A016891420CD1007FDF
:10378000082809D10C21064800F074F904490020EA
:10379000096808640349087010BD0000000001407A
:1037A0003C0200201C0100207047000010B50446B8
:1037B000022249B104290ED0082913D094F84100FF
:1037C000012816D0012010BD94F83E000128F9D13F
:1037D00084F83E200FE094F83F000128F2D184F8ED
:1037E0003F2008E094F840000128EBD184F8402005
:1037F00001E084F841200122206802F06FFB1249A9
:103800002068884203D1426C42F40042426420683E
:1038100088420ED0B0F1804F0BD00C49884208D0BE
:103820000B49884205D00B49884202D00A49884298
:1038300004D1816801F00701062903D0016841F035
:1038400001010160002010BD0000014000040040A3
:1038500000080040000C0040004001402DE9F0410C
:1038600017460D0004464FF000060CD0042D11D071
:10387000082D16D094F84100022819D094F8410080
:10388000012818D07CE094F83E00022810D094F86B
:103890003E00F5E794F83F00022809D094F83F0075
:1038A000EEE794F84000022802D094F84000E7E7E1
:1038B0000220BDE8F081002F62D0002B60D0494982
:1038C000494ADFF828C102204DB1042D18D0082D37
:1038D00027D084F841000C2D44D001267FE084F8E5
:1038E0003E00606AC163606A39460264606AC0F87B
:1038F0004CC02268606A3432FEF784F888BB21E04D
:1039000084F83F00A06AC163A06A39460264A06AD5
:10391000C0F84CC02268A06A3832FEF773F800BBCA
:1039200015E084F84000E06AC163E06A3946026449
:10393000E06AC0F84CC02268E06A3C32FEF762F8E8
:1039400078B909E02068C16841F400711EE0206880
:10395000C16841F4806119E02068C16841F40061E8
:1039600014E00DE0206BC163206B39460264206BCC
:10397000C0F84CC02268206B4032FEF743F808B113
:10398000012096E72068C16841F48051C16001229E
:103990002946206802F0A2FA15492068884203D11E
:1039A000426C42F400424264206888420ED0B0F17A
:1039B000804F0BD00F49884208D00F49884205D06C
:1039C0000E49884202D00E49884204D1816801F034
:1039D0000701062903D0016841F00101016030466A
:1039E00067E70000F75E0008555F00088D5F00087C
:1039F000000001400004004000080040000C0040AE
:103A00000040014030B504460D460068002202F037
:103A100065FA174B41F2111120688A10984209D1BA
:103A2000036A0B4206D1036A134203D1436C23F4A9
:103A3000004343642068036A0B4206D1016A1142C5
:103A400003D1016821F00101016001203DB1042D85
:103A500008D0082D09D084F84100002030BD84F83A
:103A60003E00FAE784F83F00F7E784F84000F4E707
:103A70000000014070B50D0004464FF0000607D06D
:103A8000042D0CD0082D11D00C2D16D0012645E0A8
:103A90002068C16821F40071C160606A13E0206889
:103AA000C16821F48061C160A06A0CE02068C1682F
:103AB00021F40061C160E06A05E02068C16821F47A
:103AC0008051C160206BFDF74EFE00222946206820
:103AD00002F004FA174B41F2111120688A10984243
:103AE00009D1036A0B4206D1036A134203D1436C26
:103AF00023F4004343642068036A0B4206D1016A41
:103B0000114203D1016821F00101016001203DB1A2
:103B1000042D08D0082D09D084F84100304670BD2E
:103B200084F83E00FAE784F83F00F7E784F84000A5
:103B3000F4E700000000014000680349884201D119
:103B4000FEF7ECBD70470000004401400246002033
:103B500041B1042909D008290AD00C2901D11068E3
:103B6000006C70471068406B70471068806B70473E
:103B70001068C06B7047704770477047F8B50168B0
:103B800004460868CA684B6910F00F0F4FF0000533
:103B900059D003F0010602F49077374365D0C1078E
:103BA00005D0D10503D5616C41F001016164410785
:103BB00005D5D90703D0616C41F00201616481072A
:103BC00005D5D90703D0616C41F004016164010798
:103BD00007D502F02001314303D0616C41F00801A8
:103BE0006164616C00293AD0800604D5900602D544
:103BF000204602F04CFB20684069616CC0F38010E5
:103C0000090700D460B3204602F01AFB206840691F
:103C1000400621D52068143050E8001F21F04001F3
:103C200040E80012002AF5D1E06BA8B172490165A5
:103C3000E06BFDF798FD002811D0E06B016D01B03D
:103C4000BDE8F040084783060FD593060DD5204602
:103C5000BDE8F84002F01BBB2046FFF78EFFF8BD21
:103C60002046FFF78AFF6564F8BD266B2023012EEE
:103C70007ED1C6067CD5D6067AD5086848680090FD
:103C800048694FF0020640064DD5E26B1068406867
:103C90004FF480770004000C3AD0A18D814237D9CF
:103CA000E085D069B8422DD020680C3050E8001F64
:103CB00021F4807140E80012002AF5D12068143008
:103CC00050E8001F21F0010140E80012002AF5D160
:103CD0002068143050E8001F21F0400140E8001235
:103CE000002AF5D184F84230256320680C3050E872
:103CF000001F21F0100140E80012002AF5D1E06B0E
:103D0000FDF7E8FC6663A08DE18D401A81B206E004
:103D1000A18D8142A8D1D069B842A5D16663204661
:103D2000FFF72AFFF8BDA08DE18D401A81B2E08D2A
:103D30000028F7D00029F5D020680C3050E8002F7B
:103D400022F4907240E80027002FF5D1206814304B
:103D500050E8002F22F0010240E80027002FF5D1A3
:103D600084F84230256320680C3050E8002F00E0D2
:103D700006E022F0100240E80023002BF3D1CDE74B
:103D800005062BD5150629D594F841002128C9D15F
:103D9000A068B0F5805F01D12069B0B1206A411CF4
:103DA0002162216800784860E08C401E0004000C0D
:103DB000E084B7D12068C16821F08001C16020682B
:103DC000C16841F04001C160F8BD206A0088C0F3BD
:103DD00008004860206A801C2062E5E74006F3D5B1
:103DE0005006F1D5CA68204622F04002CA6084F825
:103DF000413000F00DF9F8BD3362000870B50400E1
:103E000004D094F84100002510B106E0012070BDF7
:103E100084F84050204600F023F8242084F8410024
:103E20002068C16821F40051C160204602F090FA78
:103E30002068016921F4904101612068416921F005
:103E40002A0141612068C16841F40051C160656484
:103E5000202084F8410084F842006563002070BD92
:103E60002DE9F04186B0044614216846FCF75CFA5F
:103E7000324A21680024324802250326DFF8C48034
:103E800091421FD12E4910310A6842F400320A6073
:103E9000096801F400310591016841F001010160F8
:103EA0000068029400F0010005900C20CDE90005A7
:103EB0000720CDE9036069464046FDF7B3FE06B032
:103EC000BDE8F081204A9142F9D11D4914310A68B8
:103ED00042F020020A60096801F0200105910168A2
:103EE00041F004010160016801F0040105910168DD
:103EF00041F001010160006802AA00F00100059094
:103F00004020CDE90005082782E8D00069460F4827
:103F1000FDF788FE7802CDE9000502AA694682E82D
:103F2000D0004046FDF77EFE002205214720FEF727
:103F300087FC4720FEF776FCC1E700000044004004
:103F400030380240000002400014014000080240E6
:103F500090F84230202B01D00220704721B11AB1D5
:103F60000023036302F07ABA01207047FCF73ABEDF
:103F70002DE9F843044690F84100984616460D4650
:103F8000202802D00220BDE8F88385B17EB1002050
:103F90006064212084F84100FDF742FFA684814639
:103FA000E684A0682027B0F5805F02D003E00120FE
:103FB000E9E7206910B12E4600250EE000260CE04E
:103FC0008021204602F065FAA8B9C6B116F8010BA7
:103FD00021684860E08C401EE084E08C4B464FF046
:103FE0000002CDF800800028EAD14FF040012046C1
:103FF00002F04FFA40B184F841700320C3E735F86E
:10400000020BC0F30800E3E784F841700020BAE730
:104010007047FEE70148FDF70BBF0000DC01002000
:104020000148FDF762BF0000DC01002038B5806B5D
:10403000002190F83D202B4B46F2A8141B68B3FBDF
:10404000F4F3C3EBC30303EB830300933BB15B1EA9
:10405000009303681B689B0505D5009BF6E7036C7E
:1040600043F020030364436B03B1D963836B03B153
:10407000D96303681C6824F480641C604185436B29
:1040800003B11965836B03B1196503681C6824F0DB
:1040900001041C6090F83D402023602C0BD02824A4
:1040A00034EA02020FD080F83D3080F83E1000BFA5
:1040B000FEF733F838BD80F83D3080F83E100164DB
:1040C000FDF7B4FE38BD0268136843F001031360C6
:1040D0000268136843F480631360016380F83D4015
:1040E000E6E700007800002000684169C94309063E
:1040F00001D400210161704770B5044690F83D007D
:1041000094F83E10102901D0402906D1222804D16C
:1041100021680A6822F400620A60282131EA00025C
:104120004FF000054FF0200626D0216849680905A8
:1041300005D4602803D084F83D6084F83E502563A0
:1041400020684168090537D5416821F40061416064
:10415000606B90F835203C49012A11D00165606BF5
:10416000FDF701FB38B32068016821F0010101600F
:1041700084F83D60606B1CE0256384F83D10DFE748
:10418000A06B0165A06BFDF7EEFAA0B12068416954
:10419000C943490605D40069616A0870606A401C19
:1041A00060622068016821F00101016084F83D60CF
:1041B000A06B016D884710E094F83D10602910D085
:1041C0004169C943490605D40069616A0870606A9B
:1041D000401C60622046FDF7A0FF206CC1071CD187
:1041E00015E084F83D6025644169C943490605D45A
:1041F0000069616A0870606A401C6062206801683A
:1042000021F0010101602046FDF710FEE5E781077E
:1042100003D4410701D4000704D52068416821F484
:10422000E061416094F83D00216C49070BD52828D6
:1042300009D10648E062256384F83D6084F83E5069
:104240002046FEF7E5F870BD2D4000080000FFFF96
:1042500001684A69D24352050FD46FF480624A6103
:10426000002140F8301F202242738173026942F01E
:10427000040202610173012070470020704710B5ED
:10428000C26A438D0168042B06D0438D032B08D0EE
:10429000438D022B1DD012E04A6822F480624A60EE
:1042A0000CE04B6823F480634B60042A06D0022A9A
:1042B00004D001680A6822F480620A600168096912
:1042C000426A1170416A491C4162418D491E418513
:1042D00010BD012A34D0102A32D0042A34D0022A48
:1042E00032D00B6843F400730B6001680969436ABC
:1042F0001970416A491C4162438D5B1E4385036806
:104300001B690B70416A491C4162418D491E418500
:1043100001684B6823F440734B60202180F83D1006
:1043200090F83E300021402B80F83E1010D0082A33
:1043300002D0202A00D012210163FEF76AF810BDD6
:104340000B6823F48063CFE70B6843F48063CBE70B
:104350000163FEF760F810BD38B590F83D102229D2
:1043600010D1C36A418D03290DD901680969426AD8
:104370001170416A491C4162418D491E4185418D40
:10438000032906D038BDC26A022A02D0012906D00C
:1043900029B10068416821F48061416038BD2A4A32
:1043A00046F2A81400211268B2FBF4F202EB82027A
:1043B000009202682024009D6D1E009526D015688D
:1043C000AD05F8D4156825F4806515600268556858
:1043D00025F4E065556002681269456A2A70426AF0
:1043E000521C4262428D521E428580F83D4090F838
:1043F0003E2080F83E10402A21D0082B02D0202BEE
:1044000000D012210163FEF704F838BD036C43F0BD
:1044100020030364536823F4E06353600268126965
:10442000436A1A70426A521C4262428D521E428591
:1044300080F83D4080F83E10FDF76FFE38BD016307
:10444000FDF7E9FF38BD00007800002010B5C26A12
:1044500090F83D1021290BD1418D51B1416A02687C
:1044600009781161416A491C4162418D491E4185AB
:1044700010BD20230021082A13D0202A11D012F5C4
:10448000803F0ED00268546824F4E0645460112226
:10449000026380F83E1080F83D3000BFFDF7BAFFA0
:1044A00010BD0268546824F4E06454600268146823
:1044B00044F400741460016380F83D3090F83E20AD
:1044C00080F83E10402AE9D1FDF7A6FF10BD00009C
:1044D00010B590F83D1090F83E30C26A048DB4B12A
:1044E000212903D0402B11D122290FD1418DE1B3D5
:1044F00090F83E10402942D0416A02680978116163
:10450000416A491C4162418D491E418510BD2129E6
:10451000E8D120230021082A13D0202A11D012F537
:10452000803F0ED00268546824F4E0645460112285
:10453000026380F83E1080F83D3000BFFDF76AFF4F
:1045400010BD0268546824F4E06454600268146882
:1045500044F400741460016380F83D3090F83E200C
:1045600080F83E10402AE9D100E002E0FDF754FF58
:1045700010BD0068416821F48061416010BDBDE854
:10458000104000F0D3B8000078B590F83E50C26AF1
:10459000036B90F83D6000240168222E7AD1066DED
:1045A0000EB9402D76D0056D1DB90569B5F5404FA2
:1045B00009D0458D05B3468D384D012E0ED0438D63
:1045C000022B3AD05DE04A698A6900920A6842F497
:1045D00080720A60016D491C016578BDAA4213D141
:1045E0000A6822F480620A6001684A68120503D5ED
:1045F0000A6822F4806216E04A698A6900920A68B1
:1046000042F400720A6039E0082A10D0202A0ED045
:10461000122B0AD0042A03D0022A01D0102AE7D193
:104620000A6842F480620A6024E0012AE0D00A6845
:1046300022F480620A600168DEE7042A21D0022A9F
:104640001FD0102A1DD00B6823F480630B60016813
:104650000B6843F400630B6001684B681B0509D5C8
:10466000AA4212D0012A10D0082A0ED0102A0CD04B
:10467000202A0AD001684A6989690091046578BDD9
:1046800008E00B6843F48063E5E74A6842F480522F
:104690004A60EFE7486988690090F0E70000FFFF93
:1046A00090F83E10402910D00169B1F5804F19D023
:1046B000016DA9B3016D012910D1416C5FF0F102C8
:1046C00001F4407142EAD11106E0016D0029416C0C
:1046D00005D0C9B241F0010100680161704701F0E5
:1046E000FE01F9E790F83D102129416C09D0C9B2CB
:1046F00041F0010102681161416B29B1C96B49B9EF
:1047000002E001F0FE01F5E7816B0029E6D0C96BFC
:104710000029E3D00068416841F4006141607047BE
:10472000FFE7416CF02201F44071CBE710B590F83F
:104730003D10026D4AB1026D012A14D0026D022AA9
:1047400016D0BDE81040FFF7CFBCC16C0129816CC9
:1047500002D0C1F3072108E00268C9B21161016DFE
:10476000891C016510BD816CC9B20268116123E02A
:1047700022291CD0428D0AB1212920D0428D002A45
:10478000F0D12129EED101684A6822F4E0624A6042
:1047900001680A6842F400720A6000210163202265
:1047A00080F83D2080F83E10FDF736FE10BD016810
:1047B0000A6842F480720A60016D491CD1E7416ABF
:1047C000026809781161416A491C4162418D491EA4
:1047D000418510BD2DE9F84F0446006889460B9DC0
:1047E00001689846174641F48061016020680168BD
:1047F00041F48071016000954FF0011B0022594681
:1048000020460A9B00F07EF94FF4007A40B1206800
:104810000068C00501D5C4F840A00320BDE8F88FAA
:10482000216809F0FE0008612B46284920460A9AB3
:1048300000F0B0F9F0BB20684169806900902A4619
:1048400020460A9900F03CFA40B1206C04283AD185
:104850002068016841F40071016034E0FEB2B8F1F3
:10486000010F09D02168380A08612A4620460A99B2
:1048700000F026FA0028E8D1206806612A46204682
:104880000A9900F01DFA0028DFD12068016841F480
:104890008071016000950022594620460A9B00F075
:1048A00031F90028B3D1216809F0FF0040F0010080
:1048B000086100E007E02B46044920460A9A00F010
:1048C00069F90028AAD00120A8E700000200010031
:1048D00038B50C4690F83D20002128259543026804
:1048E0000B4605D051699169009180F83C3038BD84
:1048F000556825F480655560E243540700D50121D1
:10490000120601D5828900E0028B80F83C3092B219
:10491000FDF78DFA38BD00002DE9F04190F83D30EB
:104920000446C26A002120261E4F00686FF480658D
:10493000082A01D0202A01D1282B04D0212B17D0FE
:104940004561BDE8F081E762426822F4E0624260BE
:10495000206845612068026822F480620260216359
:1049600084F83D6084F83E102046FDF751FDE8E7ED
:10497000E7622122226384F83D6084F83E1041689A
:1049800021F4E0614160206845612068016821F4FC
:10499000806101602046FFF7A7FB2046FDF787FEF8
:1049A000CFE700000000FFFFF8B590F83D60044637
:1049B0000068416821F4E061416020680025416998
:1049C0000091016841F0010101602068016821F453
:1049D0008061016020684168090520D5474F222E7B
:1049E00048D02A2E46D0616B096849686185618D7F
:1049F00019B1216C41F004012164416821F4006186
:104A00004160606BFCF7C1FE012808D0606B076550
:104A1000606BFCF7A8FE10B1606B016D8847608D7C
:104A200008B320684169C943490708D40069616A2D
:104A30000870606A401C6062608D401E608520685E
:104A40004169C943490608D40069616A0870606A0F
:104A5000401C6062608D401E6085608D18B1206CC6
:104A600040F004002064206C00B32046BDE8F8400C
:104A7000FFF742BBA16B096849686185618D19B177
:104A8000216C41F004012164416821F4006141601E
:104A9000A06BFCF77AFE0128C1D0A06B0765A06B64
:104AA000FCF761FE0028BAD0A06BB6E72A2E06D12B
:104AB0002563282084F83D002046FDF7F7FD94F893
:104AC0003D10202028290DD0216B222901D0222E33
:104AD00007D1256384F83D0084F83E502046FDF759
:104AE000E5FDF8BD0649E162256384F83D0084F8E0
:104AF0003E502046FDF78CFCF8BD00002D4000081C
:104B00000000FFFF2DE9F047984617460D46044682
:104B1000C1F30746DDF820902AE000BFB8F1FF3F5F
:104B200026D0FDF77DF9A0EB0901414502D8B8F187
:104B3000000F1DD12068012E16D0806925EA0000E3
:104B40000004000C12D00020B84211D1002044F81B
:104B5000300F20216173A073216941F02001216190
:104B600020730120BDE8F0874069E7E70120EBE70B
:104B70002068012E0AD0806925EA00000004000C9C
:104B800006D00020B842C9D00020EBE74069F3E727
:104B90000120F7E72DE9F047984616460D460446F2
:104BA0004FF000094FF0200AC1F3074723E02068C7
:104BB0004069C043400515D42068016841F4007184
:104BC000016021686FF480604861C4F8309084F817
:104BD0003DA084F83E90216C41F00401216484F8EA
:104BE0003C9021E0701C06D0FDF71AF9A0EB0800FC
:104BF000B04203D816B1012F1FD021E02068012F49
:104C000015D0806925EA00000004000C18D000BF10
:104C100044F8309F84F80DA084F80E90216941F08B
:104C20002001216184F80C900120BDE8F0874069E3
:104C300025EA00000004000CEAD12068406901E088
:104C40002068806925EA00000004000CAFD1ECE781
:104C50002DE9F041002590460E460446202728E025
:104C60004069C043C0060CD454F8301B6FF01000EC
:104C7000486144F810596777A577206A2062257744
:104C800014E0FDF7CDF8A0EB0800B04200D886B9DB
:104C900020684069C04340060BD544F8305F677315
:104CA000A573206940F02000206125730120BDE834
:104CB000F08120684169C9434906D1D40020F6E754
:104CC00070B516460D4604461EE02046FFF7C0FAB2
:104CD00008B1012070BD681C16D0FDF7A1F8801B3B
:104CE000A84200D885B920684069C04300060BD5AA
:104CF000002044F8300F20216173A073216941F036
:104D0000200121612073E4E720684069C043000668
:104D1000DBD4002070BD00007FB50024154800944E
:104D2000019402941249039401604FF48031C0E968
:104D3000011401250461057680F820400E49C0E980
:104D40000A14C561C46080F830504561FCF77DFBF2
:104D500008B1FCF7ADF907200094CDE90150694690
:104D60000448FCF7BDFA002801D0FCF7A1F97FBD8B
:104D700000200140340100200100000F074910B558
:104D8000054808600846FCF780FC002803D0BDE811
:104D90001040FCF78DB910BD0030024044000020E7
:104DA0000D4808B5016841F48001016000680022E7
:104DB00000F48000009005213820FDF741FD3820E7
:104DC000FDF730FD002205213C20FDF739FDBDE84F
:104DD00008403C20FDF726BD3038024010B52B4876
:104DE00002F0DBF92A4C294A1021A063483A04203A
:104DF00002F04AF9254AE062303A0221042002F02A
:104E000043F9224A2063183A1021042002F03CF9A9
:104E10006063204A0021204802F014FA1D4AE06035
:104E2000243200211D4802F00DFA1A4A206148324E
:104E300000211B4802F006FA164A60616C3200211C
:104E4000184802F0FFF9134AA06190320021164879
:104E500002F0F8F90D4AE061B43A0021134802F07B
:104E6000F1F90A4A2062903A0021114802F0EAF969
:104E7000064A60626C3A00210E4802F0E3F9A06233
:104E80000248103002F02DF8E06310BDC092000817
:104E90000400002058910008FD550008FD5C000842
:104EA000F958000831570008A1550008E1580008DA
:104EB0000D5C0008ED5500082DE9F04387B0142182
:104EC0006846FBF731FA41480024016841F080014F
:104ED0000160016801F080010591016841F0040161
:104EE0000160016801F004010591016841F00101D0
:104EF0000160016801F001010591016841F00201C2
:104F000001600068324F00F0020040F28B250590EE
:104F1000002229463846FCF77DFFDFF8B8900022D2
:104F2000B0214846FCF776FFDFF8AC804EF2490628
:104F3000002231464046FCF76DFF00950125CDE982
:104F40000154694638460394FCF76CFEB02000908B
:104F5000CDE90154694648460394FCF763FE009688
:104F6000CDE90154694640460394FCF75BFE4FF4DB
:104F700086604FF48815CDE90005694602944046E5
:104F8000FCF750FEB815CDE9000569460294484685
:104F9000FCF748FE002205210A20FDF751FC0A20FB
:104FA000FDF740FC002205211720FDF749FC1720E2
:104FB000FDF738FC002205212820FDF741FC2820C0
:104FC000FDF730FC07B0BDE8F08300003038024048
:104FD0000008024000000240000402400D4810B5E5
:104FE0000B4901600C49416000214FF4804281600F
:104FF000C0E9031241618161C1610162FDF78EF870
:10500000002803D0BDE81040FCF752B810BD0000E6
:1050100000540040DC010020A0860100094810B5C2
:10502000074901600321416040F6FF718160FDF78F
:105030003FFB002803D0BDE81040FCF739B810BD95
:10504000003000403002002010B596B000240F94CC
:1050500010941194129413941C2108A81494FBF733
:1050600063F920216846FBF75FF927482549C0E925
:1050700000147C21C0E9024180210461C0E905419E
:10508000FDF73AFF08B1FCF713F84FF480500F908A
:105090000FA91D48FDF7D6FF08B1FCF709F81A481B
:1050A000FEF729FB08B1FCF703F8139413A916487F
:1050B0001494FDF7E3FE08B1FBF7FAFF6020CDE999
:1050C00008040A940C940D940C2208A90E480E941E
:1050D000FEF7ABFA08B1FBF7EBFF00944FF400507A
:1050E000CDE904400294019403946946064807946C
:1050F000FDF79AFE08B1FBF7DBFF0348FEF75AFA0B
:1051000016B010BD000001403C02002010B58AB06E
:10511000002407941C2168460894FBF705F91648FB
:105120004FF0804101606321C0E9011440F2E73192
:10513000C0E903148461FEF7DEFA08B1FBF7B8FF9B
:10514000079407A90C480894FDF798FE08B1FBF7EF
:10515000AFFF6020CDE900040294042269460648AE
:105160000494FEF762FA08B1FBF7A2FF0248FEF7CB
:1051700021FA0AB010BD00008402002010B586B0EC
:10518000002418480594049400940194029414494E
:10519000039401606321C0E901144FF6FF71C0E977
:1051A00003148461FEF78AF808B1FBF781FF0494C9
:1051B00004A90C480594FDF761FE08B1FBF778FFE0
:1051C0000120CDE900400294042269460548039479
:1051D000FDF7E2FF002801D0FBF76AFF06B010BD23
:1051E00000080040CC0200200C4810B50A490160BC
:1051F0004FF4E1314160002181600C22C160C0E9BF
:1052000004128161C161FEF7F9FD002803D0BDE8F9
:105210001040FBF74DBF10BD004400407403002058
:105220000C4810B50A4901604FF4E131416000219A
:1052300081600C22C160C0E904128161C161FEF786
:10524000DDFD002803D0BDE81040FBF731BF10BDE5
:1052500000140140BC030020FEE7FEE710B500216A
:10526000074B0A465FF0000003EBC004401CC0B2CD
:1052700062548028F8D3491CC9B20829F2D310BD62
:10528000A04D002030B5CC0801F0070301259D405A
:10529000EBB2064D05EBC005C808285C0AB11843FF
:1052A00002E063EA0000C043285530BDA04D002055
:1052B00010B5414C002240212046FCF7ABFDC82030
:1052C00001F0E3FD012240212046FCF7A3FD00216F
:1052D000AE2000F029F90021084600F025F9002150
:1052E000102000F021F90021402000F01DF90021DC
:1052F000812000F019F90021CF2000F015F90021DC
:10530000A12000F011F90021C82000F00DF90021C2
:10531000A62000F009F90021A82000F005F90021DD
:105320003F2000F001F90021D32000F0FDF800211A
:10533000084600F0F9F80021D52000F0F5F800212A
:10534000802000F0F1F80021D92000F0EDF80021D4
:10535000F12000F0E9F80021DA2000F0E5F8002162
:10536000122000F0E1F80021DB2000F0DDF8002140
:10537000402000F0D9F80021202000F0D5F80021CD
:10538000022000F0D1F800218D2000F0CDF800219E
:10539000142000F0C9F80021A42000F0C5F8002175
:1053A000A62000F0C1F8FFF759FF0021BDE810402A
:1053B000AF2000F0B9B800000004024070B5114EF3
:1053C000002400BF04F1B000C0B2002100F0ACF82E
:1053D0000021084600F0A8F80021102000F0A4F8F1
:1053E0005FF0000506EBC5000121005D00F09CF8B0
:1053F0006D1CEDB2802DF5D3641CE4B2082CE1D312
:1054000070BD0000A04D00202DE9FC4F1C460E464B
:1054100082468B460190082B0ED0600700D00120F9
:1054200000EBD400610810FB01F0C0B28146203AC5
:10543000D0B2009000204AE00620F7E7082C12D0F6
:105440000C2C17D0102C1AD0182C43D100982349BB
:1054500000EBC00001EB8001002711F80850E807BD
:1054600012D00B9A13E000981D4900EB400001EBAD
:105470004001F1E700981B4900EB4000EAE71A49B8
:10548000009801EB0011E7E70B9828B300223146A2
:105490005046FFF7F7FE761C7F1C6D08FFB2F6B290
:1054A000082FDCD30AF1010000F0FF0A082C0AD013
:1054B0000199AAEB0100B0EB540F04D10BF10800E5
:1054C0008A4600F0FF0B08F101005E46C0B280463C
:1054D0004845B3D3BDE8FC8F0122D8E78C9F000874
:1054E00000930008289500089C9900082DE9F841D0
:1054F0001E46154688460446079F0BE03346414644
:1055000020460097FFF780FF082E0AD004EB5600D4
:10551000C4B26D1C2A78A2F120005E28EED9BDE845
:10552000F881A41DE4B2F4E72DE9F0411A4F0546D5
:1055300009B1012200E0002280213846FCF76AFC14
:10554000164E002210213046FCF764FC0024002295
:1055500020213046FCF75EFC280601D5012200E040
:10556000002280213046FCF755FC012220213046E4
:10557000FCF750FC6806641C050EE4B2082CE6D368
:10558000012210213046FCF745FC3846BDE8F041C9
:1055900001228021FCF73EBC0008024000000240CE
:1055A000FBF73EFB104C4FF4FA656E1064230222A9
:1055B0000321E06B01F0D6FC98B1811C11D0C0072B
:1055C0004FF0020101D0284600E03046FBF734FBE3
:1055D000642001F05AFCFBF723FB642001F055FC2A
:1055E000E4E7FBF71DFBE1E704000020FBF72CFAE2
:1055F0000148FBF7AFFAFBE728010020FFF758FE50
:10560000FFF72CFEFFF7DAFE1AA000F083FFFBF78E
:10561000B5FB00281FD01DA000F07CFFFBF70AFAA5
:1056200021A000F077FFFBF72BFB25A000F072FF15
:10563000FBF7D6FB2CA000F06DFF2FA000F06AFF57
:10564000344E354C002521780020FBF71FFBA06865
:10565000C82802D006E031A0DEE708213046FCF77A
:10566000D1FBA560A068401CA060052001F00DFCE6
:10567000E9E7000053797374656D205374617274A7
:10568000696E672E2E2E0D0A000000005B455252F7
:105690005D204C4D373520496E6974204661696C38
:1056A00065640D0A000000005B4F4B5D20414443E0
:1056B00020444D4120537461727465640D0A0000EA
:1056C0005B4F4B5D2054494D342046726571204933
:1056D0006E707574204361707475726520537461C7
:1056E000727465640D0A00005B4F4B5D20524742A7
:1056F00020496E69740D0A0053797374656D2053E7
:105700007461727475702053756363657373210DD2
:105710000A00000000040240040000205B4F4B5DC3
:10572000204C4D373520496E69740D0A0000000089
:105730008CB04D4D012400231A4609A9E86A01F0F6
:1057400071FC00287ED12878022817D0102347A2A8
:10575000002112200094FFF7C9FE0998FAF708FE0D
:1057600041EC100B45A153EC102B01A800F0E2FE18
:105770001823122101AA2020009456E00998FAF774
:10578000F7FD41EC100B3FA153EC102B01A800F0EA
:10579000D1FE0021102301AA08460094FFF7A6FEBF
:1057A000BDF82800DFED3B0A00EE100A9FED3A1A23
:1057B000B8EE400A60EE200A80EE810A10EE100A70
:1057C000FAF7D6FD41EC100B34A153EC102B01A8D5
:1057D00000F0B0FE102301AA194600200094FFF744
:1057E00085FE0B9842F21071884205D202462FA125
:1057F00001A800F09FFE13E000EE100A9FED2F1AA3
:10580000F8EE400A80EE810A10EE100AFAF7B0FDB9
:1058100041EC100B2AA153EC102B01A800F08AFEDA
:10582000102301AA202100200094FFF75FFE95EDD0
:10583000010A10EE100AFAF79BFD41EC100B53EC35
:10584000102B00E00CE022A101A800F073FE0C2355
:1058500001AA302100200094FFF748FEFFF7AEFDBB
:10586000642001F012FB66E70400002054656D70AF
:10587000204D6F6E69746F7200000000252E316636
:1058800020430000543A20252E316620432020205A
:10589000000000003333534000F07F45563A202586
:1058A0002E3266205620202000000000463A202597
:1058B0006C7520487A2020200000000000007A4407
:1058C000463A20252E3166206B487A2000000000E1
:1058D0005365743A20252E31662043202020000095
:1058E0004FF47A740348FCF712FF204601F0CDFA1A
:1058F000F8E70000300200202DED028B002486B076
:10590000A046ADF8104027466DA000F003FE01A8A8
:10591000FBF7CCFA38B372A000F0FCFDB3EE0E0A30
:105920008DED010A01A8FBF7D9FA00BF764D9DED78
:10593000010A002085ED010A034601460090FF227E
:105940000320FBF759FADFF8C4A1B7EE008A40F252
:10595000457BA94600231A4604A9D9F8300001F076
:1059600061FB58B154E00198FAF702FD41EC100BCD
:1059700067A053EC102B00F0CDFDD7E7BDF8100069
:10598000012806D002280AD0032819D004283FD1C4
:1059900028E069A000F0BEFD4FF0010838E06EA0DD
:1059A00000F0B8FD99F800104846012906D0012101
:1059B0000170FFF753FCFFF701FD29E00221F7E733
:1059C0009DED010A30EE480A8DED010A89ED010ACC
:1059D00010EE100AFAF7CCFC41EC100B66A053EC69
:1059E000102B10E09DED010A30EE080A8DED010A42
:1059F00089ED010A10EE100AFAF7BAFC41EC100B1F
:105A000066A053EC102B00F085FD01A8FBF766FAA9
:105A10009AED000ADDED010AB4EEE00AF1EE10FAAB
:105A200001DD012500E00025BAF80410594501D92F
:105A3000012600E0002645EA0604BC421AD064B103
:105A40005FA000F067FD00200346024600901E2183
:105A50000220FBF7D1F927460DE062A000F05AFDC5
:105A600000242346FF22214603200094FBF7C4F9BB
:105A7000274616E0ACB1B8F1000F05D00321D9F8E4
:105A80003C0001F00FFA16E025B10121D9F83C00E5
:105A900001F03EFA7EB10221D9F83C0001F038FA5B
:105AA00009E00321D9F83C0001F0FCF9B8F1000F3E
:105AB00001D04FF00008642001F0E7F94AE7000048
:105AC0005B4C6F6769635D2052656164696E672036
:105AD00053657474696E67732E2E2E0D0A000000D4
